:020000040800F2
:10000000000002207D400008893200088F3200087D
:10001000953200089B320008A13200080000000061
:10002000000000000000000000000000A7320008EF
:10003000B532000800000000C3320008D1320008C9
:10004000CD400008CD400008CD400008CD4000085C
:10005000CD400008CD400008CD400008CD4000084C
:10006000CD400008CD400008CD400008CD4000083C
:10007000CD400008CD400008CD400008CD4000082C
:10008000CD400008CD400008CD400008CD4000081C
:10009000CD400008CD400008CD400008CD4000080C
:1000A000CD400008DD320008CD400008F1320008E4
:1000B000CD400008CD400008CD400008CD400008EC
:1000C000CD400008CD400008CD400008CD400008DC
:1000D000CD400008CD400008CD400008CD400008CC
:1000E000CD400008CD400008CD400008CD400008BC
:1000F00015340008CD40000829340008CD40000820
:10010000CD400008CD400008CD400008CD4000089B
:10011000CD40000899340008CD400008CD400008CB
:10012000CD400008CD400008CD400008CD4000087B
:10013000CD4000080000000000000000CD40000895
:10014000CD400008CD400008CD400008CD4000085B
:10015000CD400008CD400008CD400008CD4000084B
:10016000CD400008CD400008CD400008CD4000083B
:10017000CD400008CD400008000000000000000055
:08018000CD400008CD4000084D
:1001880010B5054C237833B9044B13B10448AFF3C9
:1001980000800123237010BD24000020000000000F
:1001A800C883000808B5034B1BB103490348AFF3E4
:1001B800008008BD0000000028000020C883000857
:1001C80081F0004102E000BF83F0004330B54FEA00
:1001D80041044FEA430594EA050F08BF90EA020F6D
:1001E8001FBF54EA000C55EA020C7FEA645C7FEA00
:1001F800655C00F0E2804FEA5454D4EB5555B8BF23
:100208006D420CDD2C4480EA020281EA030382EA93
:10021800000083EA010180EA020281EA0303362D25
:1002280088BF30BD11F0004F4FEA01314FF4801CF8
:100238004CEA113102D0404261EB410113F0004F0A
:100248004FEA03334CEA133302D0524263EB4303C1
:1002580094EA050F00F0A780A4F10104D5F1200E5F
:100268000DDB02FA0EFC22FA05F2801841F10001BA
:1002780003FA0EF2801843FA05F359410EE0A5F18E
:1002880020050EF1200E012A03FA0EFC28BF4CF0BF
:10029800020C43FA05F3C01851EBE37101F0004575
:1002A80007D54FF0000EDCF1000C7EEB00006EEB82
:1002B8000101B1F5801F1BD3B1F5001F0CD349080C
:1002C8005FEA30004FEA3C0C04F101044FEA445263
:1002D80012F5800F80F09A80BCF1004F08BF5FEAEA
:1002E800500C50F1000041EB045141EA050130BDCA
:1002F8005FEA4C0C404141EB0101013C28BFB1F5DC
:10030800801FE9D291F0000F04BF01460020B1FA26
:1003180081F308BF2033A3F10B03B3F120020CDAF9
:100328000C3208DD02F1140CC2F10C0201FA0CF0D7
:1003380021FA02F10CE002F11402D8BFC2F1200C3C
:1003480001FA02F120FA0CFCDCBF41EA0C019040F2
:10035800E41AA2BF01EB0451294330BD6FEA04043B
:100368001F3C1CDA0C340EDC04F11404C4F1200226
:1003780020FA04F001FA02F340EA030021FA04F338
:1003880045EA030130BDC4F10C04C4F1200220FA8F
:1003980002F001FA04F340EA0300294630BD21FACD
:1003A80004F0294630BD94F0000F83F4801306BF93
:1003B80081F480110134013D4EE77FEA645C18BF87
:1003C8007FEA655C29D094EA050F08BF90EA020F1E
:1003D80005D054EA000C04BF1946104630BD91EA16
:1003E800030F1EBF0021002030BD5FEA545C05D119
:1003F8004000494128BF41F0004130BD14F5800458
:100408003CBF01F5801130BD01F0004545F0FE41CB
:1004180041F470014FF0000030BD7FEA645C1ABF00
:10042800194610467FEA655C1CBF0B46024650EA37
:10043800013406BF52EA033591EA030F41F4002163
:1004480030BD00BF90F0000F04BF0021704730B5E9
:100458004FF4806404F132044FF000054FF00001BE
:1004680050E700BF90F0000F04BF0021704730B57F
:100478004FF4806404F1320410F0004548BF404254
:100488004FF000013EE700BF42004FEAE2014FEAA9
:1004980031014FEA02701FBF12F07F4393F07F4F84
:1004A80081F06051704732F07F4208BF704793F087
:1004B8007F4F04BF41F40021704730B54FF460749A
:1004C80001F0004521F000411CE700BF50EA01029D
:1004D80008BF704730B54FF000050AE050EA010246
:1004E80008BF704730B511F0004502D5404261EBB6
:1004F80041014FF4806404F132045FEA915C3FF4F7
:10050800D8AE4FF003025FEADC0C18BF03325FEA93
:10051800DC0C18BF033202EBDC02C2F1200300FA44
:1005280003FC20FA02F001FA03FE40EA0E0021FA69
:1005380002F11444BDE600BF70B54FF0FF0C4CF457
:10054800E06C1CEA11541DBF1CEA135594EA0C0F09
:1005580095EA0C0F00F0DEF82C4481EA030621EA44
:100568004C5123EA4C5350EA013518BF52EA03357F
:1005780041F4801143F4801338D0A0FB02CE4FF031
:100588000005E1FB02E506F00042E0FB03E54FF061
:100598000006E1FB03569CF0000F18BF4EF0010E59
:1005A800A4F1FF04B6F5007F64F5407404D25FEA55
:1005B8004E0E6D4146EB060642EAC62141EA555108
:1005C8004FEAC52040EA5E504FEACE2EB4F1FD0C4A
:1005D80088BFBCF5E06F1ED8BEF1004F08BF5FEAC8
:1005E800500E50F1000041EB045170BD06F000467A
:1005F80046EA010140EA020081EA0301B4EB5C0427
:10060800C2BFD4EB0C0541EA045170BD41F480111E
:100618004FF0000E013C00F3AB8014F1360FDEBF43
:10062800002001F0004170BDC4F10004203C35DA1F
:100638000C341BDC04F11404C4F1200500FA05F3A2
:1006480020FA04F001FA05F240EA020001F0004243
:1006580021F0004110EBD37021FA04F642EB0601B9
:100668005EEA430E08BF20EAD37070BDC4F10C04E3
:10067800C4F1200500FA04F320FA05F001FA04F2A7
:1006880040EA020001F0004110EBD37041F1000193
:100698005EEA430E08BF20EAD37070BDC4F120059E
:1006A80000FA05F24EEA020E20FA04F301FA05F206
:1006B80043EA020321FA04F001F0004121FA04F2AE
:1006C80020EA020000EBD3705EEA430E08BF20EA7E
:1006D800D37070BD94F0000F0FD101F000464000B8
:1006E80041EB010111F4801F08BF013CF7D041EA3A
:1006F800060195F0000F18BF704703F0004652003E
:1007080043EB030313F4801F08BF013DF7D043EA0E
:100718000603704794EA0C0F0CEA135518BF95EAC4
:100728000C0F0CD050EA410618BF52EA4306D1D14B
:1007380081EA030101F000414FF0000070BD50EA6A
:10074800410606BF1046194652EA430619D094EAF4
:100758000C0F02D150EA013613D195EA0C0F05D1DE
:1007680052EA03361CBF104619460AD181EA030132
:1007780001F0004141F0FE4141F470014FF00000EA
:1007880070BD41F0FE4141F4780170BD70B54FF085
:10079800FF0C4CF4E06C1CEA11541DBF1CEA135505
:1007A80094EA0C0F95EA0C0F00F0A7F8A4EB0504E7
:1007B80081EA030E52EA03354FEA013100F08880DE
:1007C8004FEA03334FF0805545EA131343EA1263A7
:1007D8004FEA022245EA111545EA10654FEA00265C
:1007E8000EF000419D4208BF964244F1FD0404F515
:1007F800407402D25B084FEA3202B61A65EB030571
:100808005B084FEA32024FF480104FF4002CB6EB2D
:10081800020E75EB030E22BFB61A754640EA0C00AD
:100828005B084FEA3202B6EB020E75EB030E22BFED
:10083800B61A754640EA5C005B084FEA3202B6EB2E
:10084800020E75EB030E22BFB61A754640EA9C00ED
:100858005B084FEA3202B6EB020E75EB030E22BFBD
:10086800B61A754640EADC0055EA060E18D04FEA7B
:10087800051545EA16754FEA06164FEAC30343EA1B
:1008880052734FEAC2025FEA1C1CC0D111F4801FE8
:100898000BD141EA00014FF000004FF0004CB6E7E1
:1008A80011F4801F04BF01430020B4F1FD0C88BF80
:1008B800BCF5E06F3FF6AFAEB5EB030C04BFB6EB8B
:1008C800020C5FEA500C50F1000041EB045170BD7E
:1008D8000EF0004E4EEA113114EB5C04C2BFD4EBAB
:1008E8000C0541EA045170BD41F480114FF0000E2F
:1008F800013C90E645EA060E8DE60CEA135594EAAB
:100908000C0F08BF95EA0C0F3FF43BAF94EA0C0FAD
:100918000AD150EA01347FF434AF95EA0C0F7FF422
:1009280025AF104619462CE795EA0C0F06D152EA76
:1009380003353FF4FDAE1046194622E750EA41065A
:1009480018BF52EA43067FF4C5AE50EA41047FF46B
:100958000DAF52EA43057FF4EBAE12E74FEA4102CE
:10096800B2F1E04324BFB3F5001CDCF1FE5C0DD905
:1009780001F0004C4FEAC0024CEA5070B2F1004F4F
:1009880040EB830008BF20F00100704711F0804F52
:1009980021D113F13872BCBF01F00040704741F417
:1009A80080114FEA5252C2F11802C2F1200C10FA1B
:1009B8000CF320FA02F018BF40F001004FEAC123FF
:1009C8004FEAD32303FA0CFC40EA0C0023FA02F3A3
:1009D8004FEA4303CCE77FEA625307D150EA013379
:1009E8001EBF4FF0FE4040F44000704701F0004049
:1009F80040F0FE4040F40000704700BF53B94AB9C8
:100A0800002908BF00281CBF4FF0FF314FF0FF300E
:100A180000F070B9ADF1080C6DE904CE00F006F8ED
:100A2800DDF804E0DDE9022304B070472DE9F04762
:100A3800089E0D4604460F46002B4AD18A4294462A
:100A480065D9B2FA82F343B102FA03FCC3F120027A
:100A58009F4020FA02F217439C404FEA1C4E1FFAAF
:100A68008CF5B7FBFEF1220C0EFB117742EA074228
:100A780001FB05F090420AD91CEB020201F1FF3795
:100A880080F01C81904240F2198102396244121AA6
:100A9800A4B2B2FBFEF00EFB102244EA024400FBB3
:100AA80005F5A5420AD91CEB040400F1FF3280F0D9
:100AB8000781A54240F204816444023840EA0140BB
:100AC800641B00211EB1DC400023C6E90043BDE8D9
:100AD800F0878B4208D9002E00F0ED800021C6E98E
:100AE80000050846BDE8F087B3FA83F1002949D12B
:100AF800AB4202D3824200F2F880841A65EB03020B
:100B080001201746002EE2D0C6E90047DFE702B908
:100B1800FFDEB2FA82F3002B40F090808A1A4FEA87
:100B28001C471FFA8CFE0121B2FBF7F507FB1520C5
:100B3800220C42EA00420EFB05F0904208D91CEB59
:100B4800020205F1FF3802D2904200F2CB804546FE
:100B5800121AA4B2B2FBF7F007FB102244EA0244CF
:100B68000EFB00FEA64508D91CEB040400F1FF3279
:100B780002D2A64500F2BB801046A4EB0E0440EA60
:100B880005409FE7C1F120078B4022FA07FC4CEA99
:100B9800030C05FA01F420FA07F3FD404FEA1C495B
:100BA8002343B5FBF9F81FFA8CFE09FB18551C0CFA
:100BB80044EA054408FB0EF5A54202FA01F200FAE0
:100BC80001F00BD91CEB040408F1FF3A80F088808F
:100BD800A54240F28580A8F102086444641B9DB2D6
:100BE800B4FBF9F309FB134445EA044403FB0EFE86
:100BF800A64508D91CEB040403F1FF356CD2A645C1
:100C08006AD9023B644443EA0843A3FB0295A4EB78
:100C18000E04AC42C846AE4656D353D056B1B0EBDC
:100C2800080264EB0E0404FA07F7CA40CC401743E5
:100C3800C6E9007418460021BDE8F087C3F1200119
:100C480002FA03FC20FA01F225FA01F19D402A4339
:100C58004FEA1C471FFA8CFEB1FBF7F007FB101593
:100C6800110C41EA054100FB0EF58D4204FA03F42C
:100C780008D91CEB010100F1FF382FD28D422DD984
:100C880002386144491B92B2B1FBF7F507FB151115
:100C980042EA014205FB0EF1914208D91CEB02021F
:100CA80005F1FF3816D2914214D9023D6244521A16
:100CB80045EA004138E73146304608E73946E6E676
:100CC8001046FBE64845A9D2B9EB020865EB0C0EC5
:100CD800013BA3E74546EAE72B4694E74046D1E7C0
:100CE800D0467BE7023D624432E708460AE764449F
:100CF800023842E7704700BF80B500AF554B1B680C
:100D08009A68544B1B6842F001029A60524B1B6868
:100D18009A68514B1B6842F001029A6003224F49BE
:100D28004F4803F0E7FC03461A464E4B1A704E4BE9
:100D38001B681A684C4B1B6822F010021A604A4B59
:100D48001B681A68484B1B6822F008021A60464B59
:100D58001B681A68444B1B6822F004021A60424B55
:100D68001B685A69404B1B6822F080025A613E4B4F
:100D78001B681A683C4B1B6822F002021A600C219F
:100D88003A4805F06DF903461A46364B1A7038484A
:100D980005F09CF803461A46324B1A70344B1B6810
:100DA800DA68334B1B6842F00402DA60304B1B6888
:100DB800DA682F4B1B6842F00802DA602C4B1B687C
:100DC800DA682B4B1B6842F01002DA60294B294A7B
:100DD800DB6A9363274B274ADB6AD363254B254A93
:100DE800DB6A1364244805F009F803461A461D4BCC
:100DF8001A70224805F002F803461A46194B1A7071
:100E08001F4804F0FBFF03461A46164B1A701D488C
:100E180005F05CF803461A46124B1A70194B1B680A
:100E2800DA68184B1B6842F00402DA60164B164A5F
:100E3800DB6A9363154804F0E1FF03461A46094B41
:100E48001A70084B1B78002B01D0FF2300E0002309
:100E5800184680BD28030020700300206C00002085
:100E6800E00200205C010020B8030020B405002047
:100E7800DC04002000000140240500206C0500204F
:100E880044060020FC050020000401408C060020D8
:100E9800B0B500AF4FF480518C4804F095FA034682
:100EA800002B0CBF01230023DBB21A46884B1A70B3
:100EB8004FF40061874804F087FA0346002B0CBF03
:100EC80001230023DBB21A46834B1A702021814884
:100ED80004F07AFA0346002B0CBF01230023DBB28F
:100EE8001A467E4B1A7004217D4804F06DFA0346B9
:100EF800002B0CBF01230023DBB21A46794B1A7072
:100F08004FF40061714804F05FFA0346002B0CBFF0
:100F180001230023DBB21A46734B1A704FF40061A9
:100F28006C4804F051FA0346002B0CBF0123002340
:100F3800DBB21A466D4B1A701021664804F044FA69
:100F48000346002B0CBF01230023DBB21A46684B73
:100F58001A700221624804F037FA0346002B0CBFCE
:100F680001230023DBB21A46624B1A704FF48061EA
:100F7800564804F029FA03461A465F4B1A704FF494
:100F88008061544804F020FA03461A465B4B1A70F5
:100F980080214E4804F018FA03461A46584B1A7036
:100FA80001214F4804F010FA03461A46554B1A70AF
:100FB80010214B4804F008FA0346002B0CBF01230C
:100FC8000023DBB21A46504B1A70504B1A88504B0C
:100FD8001A804E4B5A884F4B1A804C4B9A884E4B6E
:100FE8001A804A4BDA884D4B1A80484B1A894C4B69
:100FF8001A80464B5A894B4B1A80444B9A894A4B64
:101008001A80424BDA89494B1A80404B1A8A484B5E
:101018001A80484B1B6807EE903AB8EE677A464B41
:10102800D3ED007A37EE677A444BD3ED007A67EE5A
:10103800277A434BC3ED007A414BD3ED007AF5EEA6
:10104800C07AF1EE10FA08D53D4BD3ED007AF1EEF7
:10105800677A3C4BC3ED007A03E0394B1B68394A89
:101068001360394B1B6807EE903AB8EE677A374B36
:10107800D3ED007A37EE677A354BD3ED007A67EE19
:10108800277A344BC3ED007A324B1B681846FFF7BA
:10109800FBF904460D462B4B1B681846FFF7F4F97D
:1010A8004FF000022C4BFFF747FA02460B4620464A
:1010B8002946FFF789F802460B4610461946FFF7FE
:1010C8004DFC0346254A136000BFB0BD0000024036
:1010D800400000200008024041000020420000209B
:1010E8000004024043000020440000204500002086
:1010F800460000204700002048000020490000204A
:101108004A0000204B0000204C0000206C0000200A
:10111800640000205E0000206000002062000020C3
:1011280068000020580000205A0000205C000020C1
:1011380066000020F00000200400002008000020C5
:10114800E8000020EC0000207C000020780000204F
:10115800000000207400002000001E403004002021
:1011680080B500AF084B1B781A464FF480610748DA
:1011780004F042F9064B1B781A464FF400710348F5
:1011880004F03AF900BF80BD50000020000402407E
:101198005100002080B487B000AFF860B9607A6071
:1011A8003B607B681B683A6812889A1A7B681A60E9
:1011B80000237B610DE07B6901335B003A681A44C8
:1011C8007B695B0039680B4412881A807B6901339C
:1011D8007B613B8C013B7A699A42ECDB3B8C03F1E7
:1011E8000043013B5B003A681344BA6812881A80CE
:1011F8007B681A683B8C03F10043013B5B0039684C
:101208000B441B881A447B681A607B681A683B8CFD
:10121800B2FBF3F2FB681A6000BF1C37BD465DF8ED
:10122800047B704780B584B000AF764BDB8D9BB2F2
:10123800C3F164039AB2744B1A80734B1B88194626
:10124800724800F001FC03461A46714B1A806D483B
:1012580006F0C4F86E4B1B88002B40F06C836B4B78
:101268001A786C4B1A70694B5A786B4B1A70694B29
:101278001B789AB2694B1B889A4240F05683634B9D
:101288009B789AB2664B1A80654B1B881B029AB2F0
:10129800634B1A805D4BDB789AB2614B1B88134312
:1012A8009AB25F4B1A80594B1B799AB25D4B1A80E0
:1012B8005C4B1B881B029AB25A4B1A80534B5B79C2
:1012C8009AB2584B1B8813439AB2564B1A80524B0A
:1012D8001B78013B0F2B00F2348301A252F823F054
:1012E8002913000877130008C513000827150008FC
:1012F80081160008CF1600084B1900084B19000882
:101308004B1900084B1900084B1900084B19000825
:101318004B1900084B1900087F170008CD17000863
:101328003E4B1B88DAB2404B1A703B4B1B7863F07C
:101338007F03DAB23C4B5A703B4B02229A7003216E
:10134800394800F081FB03461A46314B1A80304B6E
:101358001B88DAB2344BDA702D4B1B881B0A9BB200
:10136800DAB2314B1A71314B05221A80EAE22B4B63
:101378001B88DAB22C4B1A70274B1B7863F07F035B
:10138800DAB2294B5A70284B02229A700321264858
:1013980000F05AFB03461A461D4B1A801C4B1B884B
:1013A800DAB2214BDA701A4B1B881B0A9BB2DAB2ED
:1013B8001D4B1A711D4B05221A80C3E2184B1B885E
:1013C800072B00F28580164B1B881A46154B1B8885
:1013D8001344072B7CDC134B1B88002B78D00F4B56
:1013E8001B88DAB2104B1A700B4B1A780E4B5A70D6
:1013F8000C4B1B88DBB25B00DAB20B4B9A700023F4
:10140800FB6038E0D4060020D0020020080200204B
:10141800DE020020D8020020D90200200C000020A3
:10142800DA020020DC0200206C020020D202002038
:10143800884B1B881A46FB681344874A52F82330A6
:101448001B881B0A9AB2FB685B000333D1B2834A3C
:10145800D154804B1B881A46FB6813447E4A52F8C5
:1014680023301A88FB6802335B00D1B27B4AD1541F
:10147800FB680133FB607A4B1B881A46FB68934272
:10148800D6DB764B9B789BB203339BB219467348E5
:1014980000F0DAFA03461A46724B1A80714B1A8822
:1014A8006E4B9B780333D1B26C4AD1546D4B1B8879
:1014B8001B0A9AB2694B9B780433D1B2674AD1545C
:1014C800664B9B789BB205339AB2674B1A8039E218
:1014D800664B1B88DAB2614B1A70654B1B7863F058
:1014E8007F03DAB25D4B5A705C4B02229A7003217B
:1014F8005A4800F0A9FA03461A465A4B1A80594B23
:101508001B88DAB2554BDA70564B1B881B0A9BB204
:10151800DAB2524B1A71544B05221A8012E24D4B23
:101528001B88232B6ED84B4B1B881A464C4B1B88A9
:101538001344232B66DC4A4B1B88002B62D04B4B91
:101548001B88DAB2454B1A70494B1A78434B5A70CC
:10155800434B1B88DBB25B00DAB2404B9A70002326
:10156800BB6022E03B4B1B881A46BB681344414AC8
:1015780052F823301B881B0A9AB2BB685B000333FE
:10158800D1B2364AD154334B1B881A46BB68134430
:10159800384A52F823301A88BB6802335B00D1B24C
:1015A8002E4AD154BB680133BB602D4B1B881A46A9
:1015B800BB689342D6DB294B9B789BB203339BB223
:1015C8001946264800F040FA03461A46254B1A8069
:1015D800244B1A88214B9B780333D1B21F4AD1542C
:1015E800204B1B881B0A9AB21C4B9B780433D1B240
:1015F8001A4AD154194B9B789BB205339AB21A4BAD
:101608001A809FE1194B1B88DAB2144B1A70184BD9
:101618001B7863F07F03DAB2104B5A700F4B02222B
:101628009A7003210D4800F00FFA03461A460D4B35
:101638001A800C4B1B88DAB2084BDA70094B1B88EE
:101648001B0A9BB2DAB2054B1A71074B05221A80A6
:1016580078E100BFDA020020600100206C0200205F
:10166800DC020020DE020020D20200200C00002054
:10167800D90200207C0100208F4B1B88DAB28F4BE7
:101688001A708F4B1B7863F07F03DAB28B4B5A705A
:101698008A4B02229A700321884800F0D5F9034644
:1016A8001A46884B1A80874B1B88DAB2834BDA704C
:1016B800844B1B881B0A9BB2DAB2804B1A71824B8F
:1016C80005221A803EE1814B1B88072B2CD87F4BC3
:1016D8001B881A467E4B53F822307E4A12881A809D
:1016E8007D4B1A78754B1A707B4B5A78734B5A702E
:1016F800794B9A78714B9A70774BDA786F4BDA702E
:10170800754B1A796D4B1A71734B5A796B4B5A7129
:10171800714B9A79694B9A716F4BDA79674BDA7129
:10172800694B08221A800DE1634B1B88DAB2634BC0
:101738001A70634B1B7863F07F03DAB25F4B5A7001
:101748005E4B02229A7003215C4800F07DF9034643
:101758001A465C4B1A805B4B1B88DAB2574BDA701F
:10176800584B1B881B0A9BB2DAB2544B1A71564B62
:1017780005221A80E6E0504B1B88DAB24F4B1A70EC
:101788004F4B1B7863F07F03DAB24C4B5A704B4BCC
:1017980002229A700321494800F056F903461A4676
:1017A800484B1A80474B1B88DAB2444BDA70454BDA
:1017B8001B881B0A9BB2DAB2404B1A71424B0522B6
:1017C8001A80BFE0414B1B88072B00F287803F4BF4
:1017D8001B881A463F4B1B881344072B7EDC3D4B66
:1017E8001B88002B7AD000237B602DE07B685B0090
:1017F8000733394AD35C9AB2344B1B8819467B6845
:101808000B44334951F82330120292B21A802F4BFD
:101818001B881A467B6813442D4A52F823301988CE
:101828007B6804335B002C4AD35C9AB2274B1B8835
:1018380018467B680344264850F823300A4392B27E
:101848001A807B6801337B60224B1B881A467B68B1
:101858009342CBDB184B1B88DAB2184B1A70184B23
:101868001A78164B5A701C4B9A78144B9A701A4B6C
:10187800DA78124BDA70184B1A79104B1A71164B2A
:101888005A790E4B5A7106210C4800F0DDF80346D0
:101898001A460C4B1A800B4B1B88DAB2074B9A710D
:1018A800084B1B881B0A9BB2DAB2044BDA71064B51
:1018B80008221A8046E000BF0C0000206C020020BD
:1018C800D9020020DE020020D2020020DA02002025
:1018D80060010020DC020020080200201B4B1B884E
:1018E800DAB21B4B1A701B4B1B7863F07F03DAB21A
:1018F800174B5A70164B02229A700321144800F0B5
:10190800A3F803461A46144B1A80134B1B88DAB205
:101918000F4BDA70104B1B881B0A9BB2DAB20C4BC8
:101928001A710E4B05221A800CE064220C490D48EE
:1019380005F024FD06E0642209490A4805F01EFD69
:1019480000E000BF00BF1037BD4680BD0C0000207E
:101958006C020020D9020020DE020020D202002002
:1019680008020020D406002080B500AF0A4B1B886F
:10197800002B0ED001220821084803F03DFD064B3C
:101988001B881A460649074805F0B3FC024B00229B
:101998001A8000BF80BD00BFD202002000040240B0
:1019A8006C020020D406002080B582B000AF7860B9
:1019B8007B68054A934203D1FFF734FCFFF7D4FF55
:1019C80000BF0837BD4680BDD406002080B582B070
:1019D80000AF78607B680A4A93420CD10022082144
:1019E800084803F009FD084B00221A8064220749C1
:1019F800034805F0C3FC00BF0837BD4680BD00BFE3
:101A0800D406002000040240D20200200802002070
:101A180080B582B000AF78607B68084A934209D1EC
:101A2800074B02221A80054806F02EF803469AB2A0
:101A3800044B1A8000BF0837BD4680BDD40600207D
:101A4800D6020020D402002080B485B000AF7860B0
:101A58000B467B804FF6FF73FB810EE0FB891B0A68
:101A68009AB2FB89D9B27B68581C78601B784B40C6
:101A7800084931F813305340FB817B885A1E7A801D
:101A8800002BEBD1FB8918461437BD465DF8047B63
:101A9800704700BFE083000880B584B000AF3B46C4
:101AA80000221A605A609A60DA60214B214A1A6053
:101AB8001F4B00225A601E4B00229A601C4B0022CA
:101AC8001A611B4B00221A76194B002283F820203A
:101AD800174B0022DA62164B174A9A62144B0022FF
:101AE800DA60134B0122DA61114B002283F83020AF
:101AF8000F4B01225A610E4802F07CFB0346002B73
:101B080001D001F073F90B233B6001237B600023B4
:101B1800BB603B461946064802F0CEFB0346002B45
:101B280001D001F063F900BF1037BD4680BD00BF8A
:101B3800E0020020002001400100000F80B584B0C1
:101B480000AF3B4600221A605A609A60DA60214B67
:101B5800214A1A601F4B00225A601E4B00229A60CD
:101B68001C4B01221A611B4B00221A76194B0022CA
:101B780083F82020174B0022DA62164B174A9A6224
:101B8800144B0022DA60134B0122DA61114B002258
:101B980083F830200F4B01225A610E4802F02AFBCD
:101BA8000346002B01D001F021F90C233B600123EF
:101BB8007B600023BB603B461946064802F07CFB6D
:101BC8000346002B01D001F011F900BF1037BD46C4
:101BD80080BD00BF28030020002101400100000F44
:101BE80080B584B000AF3B4600221A605A609A6004
:101BF800DA60214B214A1A601F4B00225A601E4BA3
:101C080000229A601C4B00221A611B4B00221A7694
:101C1800194B002283F82020174B0022DA62164B5A
:101C2800174A9A62144B0022DA60134B0122DA61D8
:101C3800114B002283F830200F4B01225A610E48C5
:101C480002F0D8FA0346002B01D001F0CFF80A239E
:101C58003B6001237B600023BB603B461946064876
:101C680002F02AFB0346002B01D001F0BFF800BFA9
:101C78001037BD4680BD00BF700300200022014020
:101C88000100000F80B58EB000AF786007F1240323
:101C980000221A605A609A60DA601A617B681B68D1
:101CA8005D4A934258D100233B625C4B5B6C5B4AB4
:101CB80043F480735364594B5B6C03F480733B6249
:101CC8003B6A0023FB61554B1B6B544A43F00403EA
:101CD8001363524B1B6B03F00403FB61FB69022384
:101CE8007B620323BB620023FB6207F124031946CE
:101CF8004B4803F0CDF94B4B4B4A1A60494B002235
:101D08005A60484B00229A60464B0022DA60454BE5
:101D18004FF480621A61434B4FF400625A61414BA1
:101D28004FF400529A613F4B4FF48072DA613D4B99
:101D380000221A623B4B00225A623A4802F030FFF6
:101D48000346002B01D001F051F87B68354A9A63AD
:101D5800344A7B6893635AE07B681B68334A934232
:101D680028D10023BB612D4B5B6C2C4A43F40073D4
:101D780053642A4B5B6C03F40073BB61BB6900239B
:101D88007B61264B1B6B254A43F004031363234BEB
:101D98001B6B03F004037B617B6904237B620323D1
:101DA800BB620023FB6207F1240319461C4803F0B9
:101DB8006FF92CE07B681B681D4A934227D10023EA
:101DC8003B61164B5B6C154A43F480635364134BB9
:101DD8005B6C03F480633B613B690023FB600F4B42
:101DE8001B6B0E4A43F0040313630C4B1B6B03F08D
:101DF8000403FB60FB6801237B620323BB620023AF
:101E0800FB6207F124031946054803F041F900BFB6
:101E18003837BD4680BD00BF002001400038024071
:101E280000080240B803002010640240002101406D
:101E38000022014080B483B000AF00237B60094BCF
:101E48001B6B084A43F480031363064B1B6B03F4B4
:101E580080037B607B6800BF0C37BD465DF8047B60
:101E6800704700BF0038024080B58AB000AF07F164
:101E7800140300221A605A609A60DA601A6100231B
:101E88003B61414B1B6B404A43F0800313633E4B5D
:101E98001B6B03F080033B613B690023FB603A4BFB
:101EA8001B6B394A43F004031363374B1B6B03F076
:101EB8000403FB60FB680023BB60334B1B6B324A97
:101EC80043F001031363304B1B6B03F00103BB604A
:101ED800BB6800237B602C4B1B6B2B4A43F002032F
:101EE8001363294B1B6B03F002037B607B680023A1
:101EF8003B60254B1B6B244A43F008031363224BBA
:101F08001B6B03F008033B603B6800224FF4E16160
:101F18001E4803F071FA4FF4E4537B610023BB6160
:101F28000023FB6107F114031946194803F0B0F8C0
:101F38004FF443637B610023BB610023FB6107F11E
:101F480014031946134803F0A3F837237B610023D1
:101F5800BB610023FB6107F1140319460B4803F02A
:101F680097F84FF4E1637B610123BB610023FB61B8
:101F780000233B6207F114031946044803F088F86C
:101F880000BF2837BD4680BD00380240000402402B
:101F9800000002400008024080B500AF02F094F84B
:101FA80000F030F8FFF760FFFFF744FF01F090FA08
:101FB80001F0A4FBFFF770FDFFF7C0FD01F028FB5F
:101FC80001F03CFD01F09AFC01F09AFDFFF708FED4
:101FD80001F0B6FF01F008FC084A0121084800F0AA
:101FE80053FD0221064800F061FD4FF4FA7002F03B
:101FF800DDF8034800F070FDFBE700BFA1260008EC
:102008001804002080B594B000AF07F120033022F7
:102018000021184606F0A8F907F10C0300221A60FF
:102028005A609A60DA601A610023BB60284B1B6C07
:10203800274A43F080531364254B1B6C03F08053ED
:10204800BB60BB6800237B60224B1B68214A43F4BA
:10205800804313601F4B1B6803F480437B607B68DD
:1020680001233B624FF480337B620223BB634FF44E
:102078008003FB6304233B64A8237B640223BB64C3
:102088000423FB6407F12003184603F0CFF9034645
:10209800002B01D000F0AAFE0F23FB6002233B6156
:1020A80000237B614FF4A053BB614FF4A053FB6145
:1020B80007F10C030521184603F030FC0346002BFA
:1020C80001D000F093FE00BF5037BD4680BD00BF71
:1020D800003802400070004080B582B000AF7860E0
:1020E8007B68084A934209D1074B1B68042B05D12A
:1020F800064800F0BAFE064800F0FAFF00BF0837AD
:10210800BD4680BDFC050020340400206404002086
:10211800AC04002080B500AF00220021244804F060
:1021280094FF002200214FF0804004F08EFF00222F
:102138000021204804F089FF002200211E4804F0F5
:1021480084FF1B4B5B6C1A4A23F400435364184BFF
:102158005B6C174A23F4806353644FF080435B6CD5
:102168004FF0804223F4004353644FF080435B6C8C
:102178004FF0804223F4806353640E4B5B6C0D4A2E
:1021880023F4004353640B4B5B6C0A4A23F48063CB
:102198005364094B5B6C084A23F400435364064BB1
:1021A8005B6C054A23F48063536400BF80BD00BFA5
:1021B80000000140000400400040014080B500AF2D
:1021C80001220021174804F040FF012200214FF0AE
:1021D800804004F03AFF01220021134804F035FF43
:1021E80001220021114804F030FF0E4B5B6C0D4AB0
:1021F80043F4004353644FF080435B6C4FF08042DC
:1022080043F400435364084B5B6C074A43F40043B0
:102218005364064B5B6C054A43F40043536400BFA8
:1022280080BD00BF000001400004004000400140A4
:1022380080B485B000AF87ED010AD7ED017AB7EE1B
:10224800007AF4EEC77AF1EE10FA02DD4FF07E5311
:102258007B60D7ED017AF5EEC07AF1EE10FA02D57F
:102268004FF000037B60134BDB6A07EE903AB8EE41
:10227800677AD7ED017A67EE277AFCEEE77A17EEF0
:10228800903AFB600B4B5B6BFA689A420CD0094A98
:10229800FB6853634FF08042FB685363064AFB6850
:1022A8005363064AFB68536300BF1437BD465DF8A5
:1022B800047B7047000001400004004000400140DA
:1022C80080B485B000AF03463960FB71FB790C2BF5
:1022D8004CD00C2B6DDC042B02D0082B23D068E0EB
:1022E8003A4BDB6A394AD26A07EE902AF8EE677AE7
:1022F800DFED376A87EEA67A3A6807EE902AF8EE9D
:10230800677A67EE277AFCEEE77A17EE902A9B1A2F
:10231800143BFB602D4B9B6BFA689A424BD02B4ABF
:10232800FB68936347E0294BDB6A284AD26A07EEC9
:10233800902AF8EE677ADFED266A87EEA67A3A6881
:1023480007EE902AF8EE677A67EE277AFCEEE77ACE
:1023580017EE902A9B1A143BFB601C4BDB6BFA6848
:102368009A422AD0194AFB68D36326E0174BDB6AE6
:10237800164AD26A07EE902AF8EE677ADFED146AF9
:1023880087EEA67A3A6807EE902AF8EE677A67EE43
:10239800277AFCEEE77A17EE902A9B1A143BFB602B
:1023A8000A4B1B6CFA689A4209D0084AFB68136406
:1023B80005E000BF04E000BF02E000BF00E000BF8E
:1023C80000BF1437BD465DF8047B7047000001402C
:1023D8000000B44380B485B000AF78607B6844F2F5
:1023E8005062934202D944F250637B607B6843F2A7
:1023F800AF62934202D843F2B0637B600F4A7B68B6
:10240800B2FBF3F3FB600E4BDB6AFA689A420FD01B
:102418000B4AFB68D3624FF08042FB68D362094ADB
:10242800FB68D362084AFB68D362084AFB68D36238
:1024380000BF1437BD465DF8047B7047406F40010C
:102448000000014000040040004001400008004036
:1024580080B500AF00220021104804F0F6FD0022EC
:1024680000210F4804F0F1FD0C4B5B6C0B4A23F480
:1024780000435364094B5B6C084A23F4806353643C
:10248800074B5B6C064A23F400435364044B5B6CB4
:10249800034A23F48063536400BF80BD00040140F5
:1024A8000018004080B485B000AF87ED010AD7ED71
:1024B800017AB7EE007AF4EEC77AF1EE10FA02DD8F
:1024C8004FF07E537B60D7ED017AF5EEC07AF1EEDE
:1024D80010FA02D54FF000037B60104BDB6A07EE61
:1024E800903AB8EE677AD7ED017A67EE277AFCEE74
:1024F800E77A17EE903AFB60084B5B6BFA689A42F2
:1025080005D0064AFB685363054AFB68536300BF5E
:102518001437BD465DF8047B704700BF00040140D6
:102528000018004080B485B000AF03463960FB71E5
:10253800FB790C2B4CD00C2B6DDC042B02D0082B18
:1025480023D068E03A4BDB6A394AD26A07EE902A10
:10255800F8EE677ADFED376A87EEA67A3A6807EE13
:10256800902AF8EE677A67EE277AFCEEE77A17EE9C
:10257800902A9B1A143BFB602D4B9B6BFA689A427E
:102588004BD02B4AFB68936347E0294BDB6A284A08
:10259800D26A07EE902AF8EE677ADFED266A87EEB0
:1025A800A67A3A6807EE902AF8EE677A67EE277AF5
:1025B800FCEEE77A17EE902A9B1A143BFB601C4B43
:1025C800DB6BFA689A422AD0194AFB68D36326E083
:1025D800174BDB6A164AD26A07EE902AF8EE677A3A
:1025E800DFED146A87EEA67A3A6807EE902AF8EECD
:1025F800677A67EE277AFCEEE77A17EE902A9B1A3D
:10260800143BFB600A4B1B6CFA689A4209D0084AD3
:10261800FB68136405E000BF04E000BF02E000BFF0
:1026280000E000BF00BF1437BD465DF8047B70476B
:10263800000401400000B44380B485B000AF786066
:102648007B6844F25062934202D944F250637B6043
:102658007B6843F2AF62934202D843F2B0637B6077
:102668000A4A7B68B2FBF3F3FB60094BDB6AFA6842
:102678009A4205D0064AFB68D362064AFB68D362D1
:1026880000BF1437BD465DF8047B7047406F4001BA
:10269800000401400018004080B582B002AF322328
:1026A8000093B04BB04AB149B148FEF773FD3223ED
:1026B8000093B04BB04AB149B148FEF76BFDFEF745
:1026C800E7FBFEF74DFD00F0A9FA00F0E9FAAD4B83
:1026D8001B88002B02D0AC4B05221A60AB4B1B7831
:1026E800002B03D0AA4B01221A7002E0A84B00224B
:1026F8001A70A54B1B68062B00F2AF8101A252F895
:1027080023F000BF2927000849280008512800089D
:1027180059280008A1280008E3280008112A000801
:10272800994B1A689B4B1B689A4208D000F004FA30
:102738000346994A1360944B1B68964A1360974B5B
:10274800974A1A60954BC822DA60944B00221A7196
:10275800924B00229A60934B934A1A60914B6422E1
:10276800DA60904B00221A718E4B00229A60FEF7B5
:10277800C3FA03461A468D4B1A700122B2EE041AA8
:10278800DFED8B0A9FED8B0A8B498C4800F033FBF9
:10279800DFED872A9FED8A2ADFED851A9FED881ADB
:1027A800DFED880A9FED880A884A8949894800F040
:1027B80042FC01229FED881ADFED880A9FED880A06
:1027C8008849894800F017FB6422B7EE001ADFED4C
:1027D800780A9FED860A8649864800F00CFB4FF47C
:1027E8007A50FFF7F7FDB4210420FFF769FD5A215D
:1027F8000820FFF765FD4FF487710C20FFF760FD97
:102808009FED6B0AFFF714FDFFF784FC4FF47A5035
:10281800FFF712FFB4210420FFF784FE9FED640A3E
:10282800FFF740FEFFF714FE604B1B78002B03D127
:10283800554B01221A6017E1534B06221A6013E127
:10284800514B02221A600FE14F4B03221A600BE131
:102858004D4B1A684F4B1B689A4208D000F06CF930
:1028680003464D4A1360484B1B684A4A13600521CA
:102878004A4800F09FF905214A4800F09BF900F00A
:102888005BF90246444B1B68D31AC72B40F2E7801A
:102898003D4B04221A60E2E03B4B1A683D4B1B6833
:1028A8009A4211D000F048F903463B4A1360524B54
:1028B80001221A70FFF782FC9FED500AFFF7B8FC5F
:1028C800314B1B68334A13600521344800F072F914
:1028D8000521344800F06EF9C6E02B4B1A682D4BE1
:1028E8001B689A4227D000F027F903462A4A13604A
:1028F800414B00221A70FFF70DFC9FED2D0AFFF7E0
:1029080097FCFFF7A5FD9FED2A0AFFF7CBFD2B48A3
:1029180000F09AFA284B4FF000021A602D4800F098
:10292800CAFB374B00221A70364B00221A70164B1E
:102938001B68184A1360134B1B88002B03D0124BDB
:1029480006221A608DE000F0F7F80246124B1B6869
:10295800D31AB3F57A7FC0F084800B4B01221A603A
:102968007FE000BF84000020800000205800002085
:102978007C000020F8000020F40000205A0000200D
:10298800F000002042040020340400204D00002004
:102998002C040020380400203C04002044040020BB
:1029A8004C000020540400202D0400204004002086
:1029B8000000000000009644280400206404002061
:1029C800CDCC4C3F0AD7A33B6F12033A300400200A
:1029D8006C040020AC0400200000204200007A446F
:1029E80000007A46100000207C04002000002843E4
:1029F8001400002094040020500000206666E63E83
:102A08004E0000204F000020194B1B78002B02D0ED
:102A1800174B00221A70174B1B78002B02D0154B4E
:102A280000221A70144B1B78002B02D0124B002284
:102A38001A70FFF76FFB9FED110AFFF7F9FBFFF71D
:102A480007FD9FED0E0AFFF72DFD0D4B1B88002B90
:102A580009D10C4B01221A6005E000BF04E000BF59
:102A680002E000BF00E000BF00BFBD4680BD00BF60
:102A78004E0000204F000020500000200000000001
:102A8800420400203404002080B485B000AFF86010
:102A9800B9607A60FB68BA689A607A68FB68DA603D
:102AA80000BF1437BD465DF8047B704780B582B01F
:102AB80000AF78600B46FB707B689B68002B07D0E3
:102AC80000F03AF802467B685A607B68FA781A7018
:102AD80000BF0837BD4680BD80B582B000AF7860C2
:102AE8007B681B78002B23D001F054FB02467B68DF
:102AF8005B68D21A7B689B689A4219D37B681B78FB
:102B0800012B02D0022B0AD012E07B6800221A7037
:102B18007B6800225A607B68DB68984708E001F010
:102B280039FB02467B685A607B68DB68984700BFC0
:102B380000BF0837BD4680BD80B500AF01F02AFB55
:102B48000346184680BD80B584B000AFB9607A608E
:102B58003B600346FB73FB7B002B03D17B680022A1
:102B68001A7022E0FB7B012B03D17B6801221A70CB
:102B78001BE0FB7B022B18D101F00CFB02463B68E3
:102B88001B68D31ABA689A420FD801F003FB0246B1
:102B98003B681A607B681B78012B03D17B68002295
:102BA8001A7002E07B6801221A7000BF1037BD4618
:102BB80080BD000080B582B000AF78600B46FB7026
:102BC8007B681B681B78012B14D17B681B79002B51
:102BD80010D1FFF7B1FF02467B689B68D21A7B6869
:102BE800DB689A4214D37B6801221A71FB780A4A7F
:102BF80013600DE07B681B681B78002B02D17B6893
:102C080000221A71FFF798FF02467B689A6000BF9E
:102C180000BF0837BD4680BD3404002080B500AF32
:102C28001C4B1B68042B06D11B4B1C4A002101209E
:102C3800FFF789FF2BE0174B1B68032B03D0154BBD
:102C48001B68022B06D1144B144A64210220FFF79B
:102C58007AFF1CE00F4B1B68012B07D10E4B0F4A64
:102C68004FF4FA710220FFF76EFF10E0094B1B6862
:102C7800062B06D1084B094A00210020FFF763FF05
:102C880005E0054B054A00210020FFF75CFF00BF67
:102C980080BD00BF340400205400002051000020F3
:102CA80080B400AF444B1B78002B06D0434B1B88E5
:102CB80043F002039AB2414B1A80414B1B78002B18
:102CC80006D03E4B1B8843F040039AB23B4B1A8018
:102CD8003C4B1B78002B06D0384B1B8843F08003F5
:102CE8009AB2364B1A80384B1B78002B06D0334BE0
:102CF8001B8843F004039AB2304B1A80334B1B787D
:102D0800002B06D02D4B1B8843F480739AB22B4BB3
:102D18001A802F4B1B78002B06D0284B1B8843F4B6
:102D280000739AB2254B1A802A4B1B78002B06D0C9
:102D3800224B1B8843F008039AB2204B1A80264B7B
:102D48001B78002B06D01D4B1B8843F480639AB276
:102D58001A4B1A80214B1B78002B06D0174B1B8867
:102D680043F400639AB2154B1A801D4B1B78002B55
:102D780006D0124B1B8843F010039AB20F4B1A80EF
:102D8800184B1B78002B06D00C4B1B8843F4805340
:102D98009AB20A4B1A80144B1B78002B06D0074BAB
:102DA8001B8843F400539AB2044B1A8000BFBD46F7
:102DB8005DF8047B704700BF4800002042040020F3
:102DC800400000204400002049000020410000206D
:102DD800450000204A000020420000204600002054
:102DE8004B000020430000204700002080B400AFC3
:102DF80072B600BFFEE780B487B000AF7861396172
:102E080087ED030AC7ED020A87ED011A13467B8096
:102E18007B693A69DA607B6900221A807B697A8863
:102E28005A807B69BA685A617B694FF000029A60E0
:102E38007B697A685A607B69FA681A6100BF1C3737
:102E4800BD465DF8047B704780B483B000AF7860FE
:102E58007B6800221A807B684FF000029A6000BFEE
:102E68000C37BD465DF8047B704780B483B000AF73
:102E780078607B681A887B685B889A4206D27B6890
:102E88001B8801339AB27B681A80CEE07B6893ED89
:102E9800027A7B68DB68D3ED007AB4EEE77AF1EE6C
:102EA80010FA2AD57B68D3ED027AF5EEC07AF1EEF6
:102EB80010FA22DB7B6893ED027A7B68D3ED017A06
:102EC80037EE277A7B68DB68D3ED007AB4EEE77AD1
:102ED800F1EE10FA0BD57B6893ED027A7B68D3ED9F
:102EE800017A77EE277A7B68C3ED027A7BE07B680C
:102EF800DB681A687B689A6075E07B6893ED027AF4
:102F08007B68DB68D3ED007AB4EEE77AF1EE10FA6D
:102F180013DD7B68D3ED027AF5EEC07AF1EE10FA94
:102F28000BDD7B6893ED027A7B68D3ED017A77EE4F
:102F3800677A7B68C3ED027A55E07B6893ED027A85
:102F48007B68DB68D3ED007AB4EEE77AF1EE10FA2D
:102F58002ADD7B68D3ED027AF5EEC07AF1EE10FA3D
:102F680022D87B6893ED027A7B68D3ED017A37EE3D
:102F7800277A7B68DB68D3ED007AB4EEE77AF1EE66
:102F880010FA0BDD7B6893ED027A7B68D3ED017A4A
:102F980077EE677A7B68C3ED027A24E07B68DB68AA
:102FA8001A687B689A601EE07B6893ED027A7B68FA
:102FB800DB68D3ED007AB4EEE77AF1EE10FA12D5B9
:102FC8007B68D3ED027AF5EEC07AF1EE10FA0AD5F5
:102FD8007B6893ED027A7B68D3ED017A77EE277AE6
:102FE8007B68C3ED027A7B6893ED027A7B68D3ED48
:102FF800047AB4EEE77AF1EE10FA04DB7B681A691A
:103008007B689A600EE07B6893ED027A7B68D3ED6B
:10301800057AB4EEE77AF1EE10FA03D87B685A69BC
:103028007B689A607B6800221A8000BF0C37BD4617
:103038005DF8047B704780B48BB000AF786239626A
:10304800FA6187ED060AC7ED050A87ED041AC7ED90
:10305800031A87ED022AC7ED012A7B6AFA699A6189
:103068007B6A7A685A627B6A4FF000021A607B6A50
:10307800FA68DA627B6A3A699A627B6A3A6A5A61E2
:103088007B6A4FF000021A617B6A4FF000025A60B7
:103098007B6ABA681A627B6A4FF00002DA617B6A5F
:1030A8007A699A607B6ABA69DA6000BF2C37BD46D4
:1030B8005DF8047B704780B483B000AF78607B68AC
:1030C8004FF000021A607B684FF000021A617B68BB
:1030D8004FF000025A607B684FF00002DA6100BFCF
:1030E8000C37BD465DF8047B704700000000000007
:1030F8002DE9B04382B000AF78607B685B6993EDDF
:10310800007A7B689B69D3ED007A77EE677A7B68F3
:10311800C3ED077A7B681B681846FDF7B5F90446C6
:103128000D467B689B681846FDF7AEF93EA3D3E9C8
:103138000023FDF701FA02460B46904699467B6844
:10314800DB691846FDF7A0F902460B46404649469A
:10315800FDF7F2F902460B4620462946FDF736F8F8
:1031680002460B4610461946FDF7F8FB02467B68F7
:103178001A607B6893ED007A7B68D3ED0B7AB4EE26
:10318800E77AF1EE10FA04D57B68DA6A7B681A6090
:103198000EE07B6893ED007A7B68D3ED0A7AB4EE93
:1031A800E77AF1EE10FA03DD7B689A6A7B681A60A9
:1031B8007B6893ED037A7B68D3ED077A67EE277A0D
:1031C8007B68C3ED017A7B6893ED017A7B68D3ED68
:1031D800007A77EE277A7B68C3ED047A7B6893EDF3
:1031E800047A7B68D3ED097AB4EEE77AF1EE10FA47
:1031F80004D57B685A6A7B681A610FE07B6893ED97
:10320800047A7B68D3ED087AB4EEE77AF1EE10FA27
:1032180000DC03E07B681A6A7B681A6100BF083724
:10322800BD46BDE8B08300BFFCA9F1D24D62103F96
:1032380080B483B000AF00237B60104B5B6C0F4AF7
:1032480043F4804353640D4B5B6C03F480437B6011
:103258007B6800233B60094B1B6C084A43F0805392
:103268001364064B1B6C03F080533B603B6800BF44
:103278000C37BD465DF8047B704700BF003802403C
:1032880080B400AFFEE780B400AFFEE780B400AFC3
:10329800FEE780B400AFFEE780B400AFFEE780B47D
:1032A80000AF00BFBD465DF8047B704780B400AF37
:1032B80000BFBD465DF8047B704780B400AF00BF17
:1032C800BD465DF8047B704780B500AF00F04EFF47
:1032D80000BF80BD80B500AF024802F0E2FF00BF2A
:1032E80080BD00BFDC04002080B500AF414B1B68E7
:1032F8001B6903F00403042B23D13F4B1B681A6A94
:1033080041F211131340002B0FD13B4B1B681A6A73
:1033180040F244431340002B07D1374B1B681A680F
:10332800354B1B6822F001021A604FF080430022DF
:103338005A62314B1B681A682F4B1B6842F0010216
:103348001A602C4B1B681B6903F00803082B22D159
:103358002A4B1B681A6A41F211131340002B0FD134
:10336800264B1B681A6A40F244431340002B07D1CE
:10337800224B1B681A68214B1B6822F001021A6055
:103388001F4B00225A621D4B1B681A681B4B1B6897
:1033980042F001021A60174B1B681B6903F0100307
:1033A800102B22D1174B1B681A6A41F211131340D4
:1033B800002B0FD1134B1B681A6A40F24443134089
:1033C800002B07D10F4B1B681A680E4B1B6822F0A5
:1033D80001021A600C4B00225A620A4B1B681A68D9
:1033E800084B1B6842F001021A60024802F059FFBC
:1033F80000BF80BDDC040020240500206C050020EF
:1034080000040040440600200040014080B500AFA1
:10341800024802F046FF00BF80BD00BFFC05002047
:1034280080B500AF174B1B681B6903F00403042B1E
:1034380022D1154B1B681A6A41F211131340002B55
:103448000FD1114B1B681A6A40F244431340002BFA
:1034580007D10D4B1B681A680B4B1B6822F0010241
:103468001A600A4B00225A62074B1B681A68064BFF
:103478001B6842F001021A60024802F012FF00BF06
:1034880080BD00BFFC0500208C060020001800400D
:1034980080B500AF024804F053F800BF80BD00BFFC
:1034A800D406002080B400AF084BD3F88830074A10
:1034B80043F47003C2F88830044B4FF000629A60FE
:1034C80000BFBD465DF8047B704700BF00ED00E01B
:1034D80080B596B000AF07F1480300221A605A6021
:1034E8009A60DA6007F1400300221A605A6007F117
:1034F800240300221A605A609A60DA601A615A61DD
:103508009A613B1D20220021184604F02DFF3E4BF6
:103518003E4A1A603C4B03225A603B4B00229A6099
:10352800394B42F2CF02DA60374B00221A61364B30
:1035380000225A61344B00229A61334802F00EFC93
:103548000346002B01D0FFF751FC4FF48053BB64B6
:1035580007F1480319462C4803F0CAF80346002B24
:1035680001D0FFF743FC284802F042FE0346002B37
:1035780001D0FFF73BFC10233B6400237B6407F179
:1035880040031946204803F085FD0346002B01D06F
:10359800FFF72CFC60237B620023BB620023FB62E5
:1035A80000233B6300237B630023BB630023FB638F
:1035B80007F1240300221946134802F0D7FF0346F7
:1035C800002B01D0FFF712FC00237B600023BB60B7
:1035D8000023FB6000233B6100237B614FF4005311
:1035E800BB6100233B623B1D1946074803F0CEFD33
:1035F8000346002B01D0FFF7F9FB034800F0A4FBBA
:1036080000BF5837BD4680BDDC04002000000140E3
:1036180080B58EB000AF07F1280300221A605A6007
:103628009A60DA6007F1200300221A605A603B1D95
:1036380000221A605A609A60DA601A615A619A61C7
:103648002D4B4FF080421A602B4B03225A602A4BB5
:1036580000229A60284B42F2CF02DA60264B002201
:103668001A61254B00229A61234802F077FB034632
:10367800002B01D0FFF7BAFB4FF48053BB6207F170
:10368800280319461C4803F033F80346002B01D0E1
:10369800FFF7ACFB184802F0ABFD0346002B01D046
:1036A800FFF7A4FB00233B6200237B6207F12003A2
:1036B8001946114803F0EEFC0346002B01D0FFF732
:1036C80095FB60237B600023BB600023FB60002325
:1036D8007B613B1D00221946074802F047FF03465D
:1036E800002B01D0FFF782FB034800F02DFB00BF41
:1036F8003837BD4680BD00BF2405002080B58EB098
:1037080000AF07F1280300221A605A609A60DA6055
:1037180007F1200300221A605A603B1D00221A603C
:103728005A609A60DA601A615A619A612C4B2D4A84
:103738001A602B4B03225A60294B00229A60284BAF
:1037480042F2CF02DA60264B00221A61244B002293
:103758009A61234802F002FB0346002B01D0FFF7D1
:1037680045FB4FF48053BB6207F1280319461C48F8
:1037780002F0BEFF0346002B01D0FFF737FB1848C5
:1037880002F036FD0346002B01D0FFF72FFB002384
:103798003B6200237B6207F120031946104803F0BF
:1037A80079FC0346002B01D0FFF720FB60237B60E8
:1037B8000023BB600023FB6000237B613B1D0022CC
:1037C8001946074802F0D2FE0346002B01D0FFF746
:1037D8000DFB034800F0B8FA00BF3837BD4680BD7E
:1037E8006C0500200004004080B592B000AF07F1DE
:1037F800380300221A605A609A60DA6007F12403DD
:1038080000221A605A609A60DA601A6107F11C0394
:1038180000221A605A603B4600221A605A609A6079
:10382800DA601A615A619A61324B334A1A60314B35
:1038380003225A602F4B00229A602E4B42F2CF028D
:10384800DA602C4B00221A612A4B00229A6129481F
:1038580002F084FA0346002B01D0FFF7C7FA4FF4B1
:103868008053BB6307F138031946224802F040FF32
:103878000346002B01D0FFF7B9FA1E4802F096FB69
:103888000346002B01D0FFF7B1FA05237B62002322
:10389800BB6207F124031946164802F0F0FF0346FD
:1038A800002B01D0FFF7A2FA0023FB6100233B6243
:1038B80007F11C0319460F4803F0ECFB0346002BE5
:1038C80001D0FFF793FA30233B6000237B6000238D
:1038D800BB6000233B613B460C221946054802F0B9
:1038E800E9FD0346002B01D0FFF780FA00BF4837F7
:1038F800BD4680BDB40500200008004080B596B0E4
:1039080000AF07F1480300221A605A609A60DA6033
:1039180007F1400300221A605A6007F124030022CD
:103928001A605A609A60DA601A615A619A613B1D9E
:1039380020220021184604F017FD3E4B3E4A1A602B
:103948003C4B03225A603B4B00229A60394B41F2B0
:103958006702DA60374B00221A61364B00225A613F
:10396800344B00229A61334802F0F8F90346002BE1
:1039780001D0FFF73BFA4FF48053BB6407F14803CB
:1039880019462C4802F0B4FE0346002B01D0FFF77D
:103998002DFA284802F02CFC0346002B01D0FFF733
:1039A80025FA00233B6400237B6407F14003194692
:1039B800204803F06FFB0346002B01D0FFF716FAEF
:1039C80060237B620023BB620023FB6200233B630E
:1039D80000237B630023BB630023FB6307F12403FD
:1039E80000221946134802F0C1FD0346002B01D0FE
:1039F800FFF7FCF900237B600023BB600023FB601A
:103A080000233B6100237B614FF40053BB6100231B
:103A18003B623B1D1946074803F0B8FB0346002BE1
:103A280001D0FFF7E3F9034800F08EF900BF5837DB
:103A3800BD4680BDFC0500200004014080B58CB067
:103A480000AF07F1200300221A605A609A60DA601A
:103A58003B1D00221A605A609A60DA601A615A6146
:103A68009A61254B254A1A60234B03225A60224B40
:103A780000229A60204B42F2CF02DA601E4B0022ED
:103A88001A611D4B00229A611B4802F067F9034630
:103A9800002B01D0FFF7AAF94FF480533B6207F1DE
:103AA80020031946144802F023FE0346002B01D0D8
:103AB800FFF79CF9104802F09BFB0346002B01D04E
:103AC800FFF794F960237B600023BB600023FB6051
:103AD80000237B613B1D00221946074802F046FD82
:103AE8000346002B01D0FFF781F9034800F02CF9B9
:103AF80000BF3037BD4680BD44060020004001406D
:103B080080B58CB000AF07F1200300221A605A601C
:103B18009A60DA603B1D00221A605A609A60DA6087
:103B28001A615A619A61254B254A1A60234B032270
:103B38005A60224B00229A60204B41F26702DA60F9
:103B48001E4B00221A611D4B00229A611B4802F08D
:103B580005F90346002B01D0FFF748F94FF48053CD
:103B68003B6207F120031946144802F0C1FD0346E1
:103B7800002B01D0FFF73AF9104802F039FB034651
:103B8800002B01D0FFF732F960237B600023BB6074
:103B98000023FB6000237B613B1D00221946074878
:103BA80002F0E4FC0346002B01D0FFF71FF903489D
:103BB80000F0CAF800BF3037BD4680BD8C06002033
:103BC8000018004080B58AB000AF78607B681B6839
:103BD800564A93421ED100237B62554B5B6C544A74
:103BE80043F001035364524B5B6C03F001037B62A7
:103BF8007B6A00220121192000F09BFF192000F0A8
:103C0800B4FF002200211B2000F093FF1B2000F0CE
:103C1800ACFF86E07B681B68B3F1804F0ED10023B0
:103C28003B62434B1B6C424A43F001031364404B15
:103C38001B6C03F001033B623B6A72E07B681B6804
:103C48003C4A93420ED10023FB61394B1B6C384A26
:103C580043F002031364364B1B6C03F00203FB6151
:103C6800FB695EE07B681B68334A93420ED10023F0
:103C7800BB612F4B1B6C2E4A43F0040313642C4B7F
:103C88001B6C03F00403BB61BB694AE07B681B68DB
:103C98002A4A93421ED100237B61254B5B6C244A40
:103CA80043F002035364224B5B6C03F002037B6115
:103CB8007B69002201212C2000F03BFF2C2000F022
:103CC80054FF002200212E2000F033FF2E2000F0A8
:103CD8004CFF26E07B681B68194A93420ED10023EB
:103CE8003B61134B5B6C124A43F480335364104BB3
:103CF8005B6C03F480333B613B6912E07B681B68B3
:103D0800104A93420DD10023FB60094B1B6C084AF3
:103D180043F040031364064B1B6C03F04003FB6045
:103D2800FB6800BF2837BD4680BD00BF00000140CA
:103D38000038024000040040000800400004014030
:103D4800004001400018004080B58EB000AF786098
:103D580007F1240300221A605A609A60DA601A6137
:103D68007B681B686D4A93421FD100233B626C4BF2
:103D78001B6B6B4A43F001031363694B1B6B03F026
:103D880001033B623B6A4FF480737B620223BB6290
:103D98000023FB6200233B6301237B6307F12403B9
:103DA8001946604801F074F9B4E07B681B68B3F108
:103DB800804F1FD10023FB61594B1B6B584A43F0BE
:103DC80001031363564B1B6B03F00103FB61FB6993
:103DD8004FF400437B620223BB620023FB62002393
:103DE8003B6301237B6307F1240319464D4801F027
:103DF8004FF98FE07B681B684B4A93421ED1002322
:103E0800BB61474B1B6B464A43F001031363444BAA
:103E18001B6B03F00103BB61BB6940237B62022378
:103E2800BB620023FB6200233B6302237B6307F131
:103E3800240319463B4801F02BF96BE07B681B68AB
:103E48003A4A93421ED100237B61354B1B6B344A9F
:103E580043F004031363324B1B6B03F004037B61D1
:103E68007B6940237B620223BB620023FB62002341
:103E78003B6303237B6307F1240319462C4801F0B5
:103E880007F947E07B681B682A4A93421ED1002342
:103E98003B61234B1B6B224A43F001031363204B06
:103EA8001B6B03F001033B613B6904237B62022324
:103EB800BB620023FB6200233B6303237B6307F1A0
:103EC80024031946174801F0E3F823E07B681B68D0
:103ED800194A93421ED10023FB60114B1B6B104AF9
:103EE80043F0020313630E4B1B6B03F00203FB60EA
:103EF800FB684FF480437B620223BB620023FB62B2
:103F080000233B6309237B6307F1240319460B480D
:103F180001F0BEF800BF3837BD4680BD0000014043
:103F28000038024000000240000400400004014044
:103F38000008024000400140001800400004024010
:103F480080B500AF114B124A1A60104B4FF4E132A2
:103F58005A600E4B00229A600C4B0022DA600B4B21
:103F680000221A61094B0C225A61084B00229A61FF
:103F7800064B0022DA61054803F06EF90346002B70
:103F880001D0FEF733FF00BF80BD00BFD40600207C
:103F98000050004080B58AB000AF786007F1140384
:103FA80000221A605A609A60DA601A617B681B689E
:103FB8002C4A934252D100233B612B4B1B6C2A4A5B
:103FC80043F480131364284B1B6C03F480133B6188
:103FD8003B690023FB60244B1B6B234A43F004031B
:103FE8001363214B1B6B03F00403FB60FB68002386
:103FF800BB601D4B1B6B1C4A43F0080313631A4B31
:104008001B6B03F00803BB60BB684FF480537B61F4
:104018000223BB610023FB6103233B6208237B620D
:1040280007F114031946114801F032F804237B61A3
:104038000223BB610023FB6103233B6208237B62ED
:1040480007F1140319460A4801F022F8002200215A
:10405800352000F06EFD352000F087FD00BF2837C1
:10406800BD4680BD005000400038024000080240B4
:10407800000C0240DFF834D00D480E490E4A0023E8
:1040880002E0D458C4500433C4188C42F9D30B4A04
:104098000B4C002301E013600432A242FBD3FFF76C
:1040A80001FA04F069F9FDF777FF70470000022074
:1040B80000000020240000201086000824000020B2
:1040C8001C070020FEE7000080B500AF0E4B1B6800
:1040D8000D4A43F4007313600B4B1B680A4A43F400
:1040E80080631360084B1B68074A43F480731360AE
:1040F800032000F013FD052000F008F8FFF798F8FA
:104108000023184680BD00BF003C024080B582B045
:1041180000AF7860124B1A68124B1B7819464FF49F
:104128007A73B3FBF1F3B2FBF3F3184600F02BFDFF
:104138000346002B01D001230EE07B680F2B0AD821
:10414800002279684FF0FF3000F0F3FC064A7B68E4
:104158001360002300E0012318460837BD4680BDE0
:1041680018000020200000201C00002080B400AFB0
:10417800064B1B781A46064B1B681344044A136007
:1041880000BFBD465DF8047B704700BF20000020DB
:104198001807002080B400AF034B1B681846BD46C3
:1041A8005DF8047B704700BF1807002080B584B015
:1041B80000AF7860FFF7EEFFB8607B68FB60FB68D4
:1041C800B3F1FF3F05D00A4B1B781A46FB6813442E
:1041D800FB6000BFFFF7DEFF0246BB68D31AFA6830
:1041E8009A42F7D800BF00BF1037BD4680BD00BF58
:1041F8002000002080B584B000AF78600023FB73F6
:104208007B68002B01D1012333E07B681B6C002BFA
:1042180009D17868FDF736FD7B6800225A647B680F
:10422800002283F83C207B681B6C03F01003002BF2
:1042380018D17B681B6C23F4885323F0020343F0E6
:1042480002027B681A64786800F058F97B680022DB
:104258005A647B681B6C23F0030343F001027B68FC
:104268001A6401E00123FB737B68002283F83C2079
:10427800FB7B18461037BD4680BD80B483B000AFC5
:10428800786000BF0C37BD465DF8047B704780B48A
:1042980083B000AF786000BF0C37BD465DF8047B83
:1042A800704780B483B000AF786000BF0C37BD465C
:1042B8005DF8047B7047000080B485B000AF78607B
:1042C80039600023BB607B6893F83C30012B01D137
:1042D800022305E17B68012283F83C203B681B68C8
:1042E800092B25D97B681B68D9683B681B689BB27A
:1042F8001A4613465B0013441E3B072202FA03F3D7
:10430800DA437B681B680A40DA607B681B68D968F7
:104318003B689A683B681B689BB2184603465B007B
:1043280003441E3B9A407B681B680A43DA6022E01C
:104338007B681B6819693B681B689BB21A46134661
:104348005B001344072202FA03F3DA437B681B6815
:104358000A401A617B681B6819693B689A683B6860
:104368001B689BB2184603465B0003449A407B686F
:104378001B680A431A613B685B68062B24D87B6874
:104388001B68596B3B685A6813469B001344053BEE
:104398001F2202FA03F3DA437B681B680A405A6358
:1043A8007B681B68596B3B681B689BB218463B6867
:1043B8005A6813469B001344053B00FA03F27B68D6
:1043C8001B680A435A634CE03B685B680C2B24D893
:1043D8007B681B68196B3B685A6813469B0013443B
:1043E800233B1F2202FA03F3DA437B681B680A4067
:1043F8001A637B681B68196B3B681B689BB218467D
:104408003B685A6813469B001344233B00FA03F2A7
:104418007B681B680A431A6323E07B681B68D96AB8
:104428003B685A6813469B001344413B1F2202FA1B
:1044380003F3DA437B681B680A40DA627B681B680F
:10444800D96A3B681B689BB218463B685A68134692
:104458009B001344413B00FA03F27B681B680A4344
:10446800DA62224BFB607B681B68214A934209D1C0
:104478003B681B68122B05D1FB685B6843F480021C
:10448800FB685A607B681B68194A934223D13B68D2
:104498001B68102B03D03B681B68112B1BD1FB68D2
:1044A8005B6843F40002FB685A603B681B68102B8A
:1044B80011D1104B1B68104AA2FB03239A0C134618
:1044C8009B0013445B00BB6002E0BB68013BBB6020
:1044D800BB68002BF9D17B68002283F83C200023BD
:1044E80018461437BD465DF8047B70470023014029
:1044F800002001401800002083DE1B4380B485B0F3
:1045080000AF7860794BFB60FB685B6823F440324E
:10451800FB685A60FB685A687B685B681A43FB68EB
:104528005A607B681B685A687B681B6822F4807233
:104538005A607B681B6859687B681B691A027B682C
:104548001B680A435A607B681B685A687B681B684B
:1045580022F040725A607B681B6859687B689A68C9
:104568007B681B680A435A607B681B689A687B688B
:104578001B6822F400629A607B681B6899687B68F4
:10458800DA687B681B680A439A607B689B6A584AAA
:10459800934222D07B681B689A687B681B6822F06C
:1045A80070629A607B681B6899687B689A6A7B6806
:1045B8001B680A439A607B681B689A687B681B685B
:1045C80022F040529A607B681B6899687B68DA6AB7
:1045D8007B681B680A439A600FE07B681B689A68CF
:1045E8007B681B6822F070629A607B681B689A6817
:1045F8007B681B6822F040529A607B681B689A6847
:104608007B681B6822F002029A607B681B689968C5
:104618007B681B7E5A007B681B680A439A607B682C
:1046280093F82030002B1BD07B681B685A687B6886
:104638001B6842F400625A607B681B685A687B6892
:104648001B6822F460425A607B681B6859687B6863
:104658005B6A013B5A037B681B680A435A6007E0A0
:104668007B681B685A687B681B6822F400625A6082
:104678007B681B68DA6A7B681B6822F47002DA625E
:104688007B681B68D96A7B68DB69013B1A057B6814
:104698001B680A43DA627B681B689A687B681B6838
:1046A80022F400729A607B681B6899687B6893F8AB
:1046B80030305A027B681B680A439A607B681B6823
:1046C8009A687B681B6822F480629A607B681B6822
:1046D80099687B685B699A027B681B680A439A60E1
:1046E80000BF1437BD465DF8047B704700230140C6
:1046F8000100000F80B586B000AFF860B9607A603D
:1047080000233B61FB6893F83C30012B01D1022365
:10471800ABE0FB68012283F83C20FB681B689B68C0
:1047280003F00103012B18D0FB681B689A68FB682B
:104738001B6842F001029A604E4B1B684E4AA2FB6E
:1047480003239A0C13465B0013443B6102E03B6968
:10475800013B3B613B69002BF9D1FB681B689B68F7
:1047680003F00103012B73D1FB681B6C23F4E06396
:1047780023F0010343F48072FB681A64FB681B682A
:104788005B6803F48063002B07D0FB681B6C23F481
:10479800405343F48052FB681A64FB681B6C03F4B3
:1047A8008053B3F5805F06D1FB685B6C23F006028B
:1047B800FB685A6402E0FB6800225A64FB68002226
:1047C80083F83C20FB689B6B2C4ADA63FB689B6B85
:1047D8002B4A1A64FB689B6B2A4ADA64FB681B68DD
:1047E8006FF002021A60FB681B685A68FB681B6856
:1047F80042F080625A60244B7B61FB6893F830304A
:10480800002B06D07B695B6843F400527B695A60D1
:1048180005E07B695B6823F400527B695A60FB689A
:10482800986B7B6908331946BA687B6800F066FAAA
:10483800FB681B689B6803F04053002B14D1FB688E
:104848001B689A68FB681B6842F080429A600BE01C
:10485800FB681B6C43F01002FB681A64FB685B6C16
:1048680043F00102FB685A64002318461837BD4616
:1048780080BD00BF1800002083DE1B439548000858
:104888003B490008574900080023014080B584B01F
:1048980000AF78607B689B6BFB60FB681B6C03F068
:1048A8005003002B3CD1FB681B6C43F40072FB687F
:1048B8001A64FB681B689B6803F04053002B2BD1DC
:1048C800FB681B7E002B27D1FB681B68DB6A03F49F
:1048D8007003002B06D0FB681B689B6803F4806399
:1048E800002B19D1FB681B685A68FB681B6822F00B
:1048F80020025A60FB681B6C23F48072FB681A6400
:10490800FB681B6C03F48053002B05D1FB681B6C00
:1049180043F00102FB681A64F868FFF7AEFC04E094
:10492800FB689B6BDB6C7868984700BF1037BD4607
:1049380080BD80B584B000AF78607B689B6BFB60FE
:10494800F868FFF7A4FC00BF1037BD4680BD80B5EE
:1049580084B000AF78607B689B6BFB60FB6840228B
:104968001A64FB685B6C43F00402FB685A64F868DD
:10497800FFF797FC00BF1037BD4680BD80B485B0F7
:1049880000AF78607B6803F00703FB600C4BDB68C3
:10499800BB60BA684FF6FF031340BB60FB681A029E
:1049A800BB68134343F0BF6343F40033BB60044A5E
:1049B800BB68D36000BF1437BD465DF8047B704701
:1049C80000ED00E080B400AF044BDB681B0A03F085
:1049D80007031846BD465DF8047B704700ED00E00C
:1049E80080B483B000AF0346FB7197F90730002B02
:1049F8000BDBFB7903F01F02074997F907305B09C6
:104A0800012000FA02F241F8232000BF0C37BD460E
:104A18005DF8047B704700BF00E100E080B483B01C
:104A280000AF03463960FB7197F90730002B0ADBAA
:104A38003B68DAB20C4997F907301201D2B20B443D
:104A480083F800230AE03B68DAB20849FB7903F0EF
:104A58000F03043B1201D2B20B441A7600BF0C3785
:104A6800BD465DF8047B704700E100E000ED00E022
:104A780080B489B000AFF860B9607A60FB6803F071
:104A88000703FB61FB69C3F10703042B28BF042359
:104A9800BB61FB690433062B02D9FB69033B00E0C9
:104AA80000237B614FF0FF32BB6902FA03F3DA435C
:104AB800BB681A407B699A404FF0FF317B6901FA65
:104AC80003F3D9437B680B40134318462437BD468C
:104AD8005DF8047B7047000080B582B000AF786055
:104AE8007B68013BB3F1807F01D301230FE00A4AC1
:104AF8007B68013B53600F214FF0FF30FFF78EFFBB
:104B0800054B00229A60044B07221A6000231846BE
:104B18000837BD4680BD00BF10E000E080B582B018
:104B280000AF78607868FFF729FF00BF0837BD46F7
:104B380080BD80B586B000AF0346B9607A60FB736C
:104B480000237B61FFF73EFF78617A68B96878696E
:104B5800FFF78EFF024697F90F3011461846FFF708
:104B68005DFF00BF1837BD4680BD80B582B000AF7D
:104B78000346FB7197F907301846FFF731FF00BF6E
:104B88000837BD4680BD80B582B000AF78607868D0
:104B9800FFF7A2FF034618460837BD4680BD000050
:104BA80080B586B000AF786000237B61FFF7F2FA2A
:104BB80038617B68002B01D1012399E07B680222D0
:104BC80083F835207B68002283F834207B681B68D3
:104BD8001A687B681B6822F001021A600FE0FFF771
:104BE800D9FA02463B69D31A052B08D97B682022DB
:104BF8005A657B68032283F83520032378E07B68B5
:104C08001B681B6803F00103002BE8D17B681B6855
:104C18001B687B617A69384B13407B617B685A68F3
:104C28007B689B681A437B68DB681A437B681B694F
:104C38001A437B685B691A437B689B691A437B68E4
:104C4800DB691A437B681B6A13437A6913437B61E8
:104C58007B685B6A042B07D17B68DA6A7B681B6B0D
:104C680013437A6913437B617B681B687A691A600E
:104C78007B681B685B697B617B6923F007037B6149
:104C88007B685B6A7A6913437B617B685B6A042B88
:104C980017D17B689B6A7A6913437B617B68DB6AFF
:104CA800002B0ED0786800F077F90346002B08D067
:104CB8007B6840225A657B68012283F835200123EE
:104CC80016E07B681B687A695A61786800F02EF9EB
:104CD8000346FB607B68DB6D3F229A40FB689A6065
:104CE8007B6800225A657B68012283F835200023FF
:104CF80018461837BD4680BD3F8010F080B586B095
:104D080000AFF860B9607A603B600023FB75FB6810
:104D18009B6D3B61FB6893F83430012B01D1022372
:104D280040E0FB68012283F83420FB6893F83530B3
:104D3800DBB2012B2FD1FB68022283F83520FB68F8
:104D480000225A653B687A68B968F86800F0C0F8CC
:104D5800FB68DB6D3F229A403B699A60FB681B68E1
:104D68001A68FB681B6842F016021A60FB681B6C25
:104D7800002B07D0FB681B681A68FB681B6842F0A9
:104D880008021A60FB681B681A68FB681B6842F017
:104D980001021A6005E0FB68002283F83420022330
:104DA800FB75FB7D18461837BD4680BD80B584B0BD
:104DB80000AF78607B689B6DFB60FFF7EBF9B8602C
:104DC8007B6893F83530DBB2022B08D07B688022F1
:104DD8005A657B68002283F83420012352E07B68FF
:104DE8001B681A687B681B6822F016021A607B68C9
:104DF8001B685A697B681B6822F080025A617B68CD
:104E08001B6C002B03D17B689B6C002B07D07B6845
:104E18001B681A687B681B6822F008021A607B68A6
:104E28001B681A687B681B6822F001021A6013E08D
:104E3800FFF7B0F90246BB68D31A052B0CD97B687B
:104E480020225A657B68032283F835207B6800227C
:104E580083F83420032315E07B681B681B6803F084
:104E68000103002BE4D17B68DB6D3F229A40FB688D
:104E78009A607B68012283F835207B68002283F8DA
:104E88003420002318461037BD4680BD80B483B057
:104E980000AF78607B6893F83530DBB2022B04D022
:104EA8007B6880225A6501230CE07B68052283F821
:104EB80035207B681B681A687B681B6822F0010232
:104EC8001A60002318460C37BD465DF8047B70470E
:104ED80080B485B000AFF860B9607A603B60FB6869
:104EE8001B681A68FB681B6822F480221A60FB683A
:104EF8001B683A685A60FB689B68402B08D1FB68BE
:104F08001B687A689A60FB681B68BA68DA6007E011
:104F1800FB681B68BA689A60FB681B687A68DA6085
:104F280000BF1437BD465DF8047B704780B485B078
:104F380000AF78607B681B68DBB2103B144AA2FBA9
:104F480003231B09FB60134AFB6813441B781A46AA
:104F58007B68DA65FB68032B09D97B681B6823F437
:104F68007F7323F003031A1D7B689A6507E07B684B
:104F78001B6823F47F7323F003037A6893657B68C7
:104F88009B6D18461437BD465DF8047B704700BF1B
:104F9800ABAAAAAAF885000880B485B000AF7860EB
:104FA8000023FB737B689B6ABB607B689B69002B53
:104FB8001FD1BB68032B56D801A252F823F000BFBB
:104FC800D94F0008EB4F0008D94F00086F50000870
:104FD8007B68DB6A03F08073002B46D00123FB73E8
:104FE80043E07B68DB6AB3F1C07F40D10123FB73E8
:104FF8003DE07B689B69B3F5005F21D1BB68032B5B
:1050080037D801A252F823F0215000082750000891
:1050180021500008395000080123FB7330E07B68F9
:10502800DB6A03F08073002B25D00123FB7322E099
:105038007B68DB6AB3F1C07F1FD10123FB731CE0DF
:10504800BB68022B03D9BB68032B03D018E00123EC
:10505800FB7315E07B68DB6A03F08073002B0ED0CE
:105068000123FB730BE000BF0AE000BF08E000BFAC
:1050780006E000BF04E000BF02E000BF00E000BFA0
:10508800FB7B18461437BD465DF8047B704700BFAC
:1050980080B489B000AF7860396000237B61002359
:1050A8003B610023BB610023FB616BE10122FB69CB
:1050B80002FA03F37B613B681B687A6913403B6122
:1050C8003A697B699A4240F05A813B685B6803F011
:1050D8000303012B05D03B685B6803F00303022B35
:1050E80030D17B689B68BB61FB695B00032202FAD5
:1050F80003F3DB43BA691340BB613B68DA68FB69B9
:105108005B0002FA03F3BA691343BB617B68BA69AF
:105118009A607B685B68BB610122FB6902FA03F352
:10512800DB43BA691340BB613B685B681B0903F04A
:105138000102FB6902FA03F3BA691343BB617B6896
:10514800BA695A603B685B6803F00303032B17D006
:105158007B68DB68BB61FB695B00032202FA03F32F
:10516800DB43BA691340BB613B689A68FB695B0023
:1051780002FA03F3BA691343BB617B68BA69DA6060
:105188003B685B6803F00303022B23D1FB69DA0851
:105198007B68083253F82230BB61FB6903F00703D0
:1051A8009B000F2202FA03F3DB43BA691340BB6189
:1051B8003B681A69FB6903F007039B0002FA03F3D3
:1051C800BA691343BB61FB69DA087B680832B969BD
:1051D80043F822107B681B68BB61FB695B000322F4
:1051E80002FA03F3DB43BA691340BB613B685B68AF
:1051F80003F00302FB695B0002FA03F3BA69134385
:10520800BB617B68BA691A603B685B6803F440332A
:10521800002B00F0B4800023FB60604B5B6C5F4A9E
:1052280043F4804353645D4B5B6C03F48043FB6041
:10523800FB685B4AFB699B08023352F82330BB6169
:10524800FB6903F003039B000F2202FA03F3DB431D
:10525800BA691340BB617B68524A93422BD07B6882
:10526800514A934225D07B68504A93421FD07B68AD
:105278004F4A934219D07B684E4A934213D07B68B9
:105288004D4A93420DD07B684C4A934207D07B68C5
:105298004B4A934201D107230EE008230CE0062372
:1052A8000AE0052308E0042306E0032304E00223C0
:1052B80002E0012300E00023FA6902F003029200F1
:1052C8009340BA691343BB613549FB699B080233B4
:1052D800BA6941F823203B4B9B68BB613B69DB43C0
:1052E800BA691340BB613B685B6803F48013002B09
:1052F80003D0BA693B691343BB61324ABB69936007
:10530800304BDB68BB613B69DB43BA691340BB6167
:105318003B685B6803F40013002B03D0BA693B6950
:105328001343BB61274ABB69D360264B5B68BB61EB
:105338003B69DB43BA691340BB613B685B6803F4B4
:105348000033002B03D0BA693B691343BB611D4A84
:10535800BB6953601B4B1B68BB613B69DB43BA6984
:105368001340BB613B685B6803F48033002B03D0B8
:10537800BA693B691343BB61124ABB691360FB6995
:105388000133FB61FB690F2B7FF690AE00BF00BFB6
:105398002437BD465DF8047B704700BF00380240E3
:1053A80000380140000002400004024000080240AA
:1053B800000C024000100240001402400018024095
:1053C800001C0240003C014080B485B000AF78600A
:1053D8000B467B807B681A697B881340002B02D0C0
:1053E8000123FB7301E00023FB73FB7B1846143792
:1053F800BD465DF8047B704780B483B000AF786029
:105408000B467B8013467B707B78002B03D07A8811
:105418007B689A6103E07B881A047B689A6100BF05
:105428000C37BD465DF8047B7047000080B586B038
:1054380000AF78607B68002B01D1012367E27B68AD
:105448001B6803F00103002B75D0884B9B6803F0A1
:105458000C03042B0CD0854B9B6803F00C03082B22
:1054680012D1824B5B6803F48003B3F5800F0BD134
:105478007E4B1B6803F40033002B5BD07B685B68B2
:10548800002B57D1012342E27B685B68B3F5803F6C
:1054980006D1764B1B68754A43F4803313601DE0D0
:1054A8007B685B68B3F5A02F0CD1704B1B686F4A03
:1054B80043F4802313606D4B1B686C4A43F48033BC
:1054C80013600BE0694B1B68684A23F48033136050
:1054D800664B1B68654A23F4802313607B685B680E
:1054E800002B13D0FEF756FE386108E0FEF752FE97
:1054F80002463B69D31A642B01D9032307E25B4BAD
:105508001B6803F40033002BF0D014E0FEF742FED2
:10551800386108E0FEF73EFE02463B69D31A642B69
:1055280001D90323F3E1514B1B6803F40033002B2B
:10553800F0D100E000BF7B681B6803F00203002B7A
:1055480063D04A4B9B6803F00C03002B0BD0474BEE
:105558009B6803F00C03082B1CD1444B5B6803F4D5
:105568008003002B16D1414B1B6803F00203002B6C
:1055780005D07B68DB68012B01D00123C7E13B4BD9
:105588001B6823F0F8027B681B69DB00374913436B
:105598000B603AE07B68DB68002B20D0344B01229B
:1055A8001A60FEF7F7FD386108E0FEF7F3FD0246E2
:1055B8003B69D31A022B01D90323A8E12B4B1B68A3
:1055C80003F00203002BF0D0284B1B6823F0F802ED
:1055D8007B681B69DB00254913430B6015E0244BEE
:1055E80000221A60FEF7D6FD386108E0FEF7D2FD0A
:1055F80002463B69D31A022B01D9032387E11B4BCF
:105608001B6803F00203002BF0D17B681B6803F0D2
:105618000803002B36D07B685B69002B16D0154B2E
:1056280001221A60FEF7B6FD386108E0FEF7B2FD08
:1056380002463B69D31A022B01D9032367E10B4BBE
:105648005B6F03F00203002BF0D01BE0094B002234
:105658001A60FEF79FFD38610EE0FEF79BFD0246DB
:105668003B69D31A022B07D9032350E100380240C3
:1056780000004742800E4742884B5B6F03F00203ED
:10568800002BEAD17B681B6803F00403002B00F0B1
:1056980097800023FB75814B1B6C03F08053002B14
:1056A8000FD10023BB607D4B1B6C7C4A43F08053B9
:1056B80013647A4B1B6C03F08053BB60BB680123F7
:1056C800FB75774B1B6803F48073002B18D1744B60
:1056D8001B68734A43F480731360FEF75BFD3861FF
:1056E80008E0FEF757FD02463B69D31A022B01D9A1
:1056F80003230CE16A4B1B6803F48073002BF0D082
:105708007B689B68012B06D1644B1B6F634A43F08F
:10571800010313671CE07B689B68052B0CD15F4B6A
:105728001B6F5E4A43F0040313675C4B1B6F5B4AB5
:1057380043F0010313670BE0584B1B6F574A23F0E4
:1057480001031367554B1B6F544A23F00403136777
:105758007B689B68002B15D0FEF71CFD38610AE0BA
:10576800FEF718FD02463B69D31A41F2883293428C
:1057780001D90323CBE0494B1B6F03F00203002B35
:10578800EED014E0FEF706FD38610AE0FEF702FDF0
:1057980002463B69D31A41F28832934201D9032366
:1057A800B5E03E4B1B6F03F00203002BEED1FB7DEF
:1057B800012B05D1394B1B6C384A23F080531364F5
:1057C8007B689B69002B00F0A180344B9B6803F039
:1057D8000C03082B5CD07B689B69022B41D1314BB1
:1057E80000221A60FEF7D6FC386108E0FEF7D2FC0A
:1057F80002463B69D31A022B01D9032387E0274BC2
:105808001B6803F00073002BF0D17B68DA697B68B2
:105818001B6A1A437B685B6A9B011A437B689B6A15
:105828005B08013B1B041A437B68DB6A1B061B49A8
:1058380013434B601B4B01221A60FEF7ABFC386127
:1058480008E0FEF7A7FC02463B69D31A022B01D9F0
:1058580003235CE0114B1B6803F00073002BF0D0AE
:1058680054E0104B00221A60FEF794FC386108E0FF
:10587800FEF790FC02463B69D31A022B01D9032399
:1058880045E0064B1B6803F00073002BF0D13DE0A8
:105898007B689B69012B07D1012338E0003802405F
:1058A80000700040600047421B4B5B68FB607B68F0
:1058B8009B69012B28D0FB6803F480027B68DB69B5
:1058C8009A4221D1FB6803F03F027B681B6A9A4227
:1058D8001AD1FA6847F6C07313407A68526A92017F
:1058E800934211D1FB6803F440327B689B6A5B08E2
:1058F800013B1B049A4207D1FB6803F070627B6886
:10590800DB6A1B069A4201D0012300E000231846F7
:105918001837BD4680BD00BF0038024080B584B04E
:1059280000AF786039607B68002B01D10123CCE09F
:10593800684B1B6803F007033A689A420CD9654B19
:105948003A68D2B21A70634B1B6803F007033A68CF
:105958009A4201D00123B8E07B681B6803F0020378
:10596800002B20D07B681B6803F00403002B05D0B4
:10597800594B9B68584A43F4E05393607B681B6813
:1059880003F00803002B05D0534B9B68524A43F49D
:1059980060439360504B9B6823F0F0027B689B68E0
:1059A8004D4913438B607B681B6803F00103002B90
:1059B80044D07B685B68012B07D1474B1B6803F415
:1059C8000033002B19D101237FE07B685B68022B31
:1059D80003D07B685B68032B07D13F4B1B6803F040
:1059E8000073002B09D101236FE03B4B1B6803F0C8
:1059F8000203002B01D1012367E0374B9B6823F09A
:105A080003027B685B68344913438B60FEF7C2FB73
:105A1800F8600AE0FEF7BEFB0246FB68D31A41F2C3
:105A28008832934201D903234FE02B4B9B6803F044
:105A38000C027B685B689B009A42EBD1254B1B6884
:105A480003F007033A689A420CD2224B3A68D2B262
:105A58001A70204B1B6803F007033A689A4201D07A
:105A6800012332E07B681B6803F00403002B08D095
:105A7800194B9B6823F4E0527B68DB681649134393
:105A88008B607B681B6803F00803002B09D0124B5E
:105A98009B6823F460427B681B69DB000E49134353
:105AA8008B6000F021F802460B4B9B681B0903F042
:105AB8000F030A49CB5C22FA03F3094A1360094B26
:105AC8001B681846FEF722FB002318461037BD4610
